{
  "_format": "hh-sol-artifact-1",
  "contractName": "PharmaRegistry",
  "sourceName": "contracts/PharmaRegistry.sol",
  "abi": [
    {
      "anonymous": false,
      "inputs": [
        {
          "indexed": true,
          "internalType": "address",
          "name": "user",
          "type": "address"
        },
        {
          "indexed": false,
          "internalType": "bytes32",
          "name": "medicineHash",
          "type": "bytes32"
        },
        {
          "indexed": false,
          "internalType": "uint256",
          "name": "timestamp",
          "type": "uint256"
        }
      ],
      "name": "MedicineRegistered",
      "type": "event"
    },
    {
      "anonymous": false,
      "inputs": [
        {
          "indexed": true,
          "internalType": "address",
          "name": "user",
          "type": "address"
        },
        {
          "indexed": false,
          "internalType": "bytes32",
          "name": "pharmacyHash",
          "type": "bytes32"
        },
        {
          "indexed": false,
          "internalType": "uint256",
          "name": "timestamp",
          "type": "uint256"
        }
      ],
      "name": "PharmacyRegistered",
      "type": "event"
    },
    {
      "anonymous": false,
      "inputs": [
        {
          "indexed": true,
          "internalType": "address",
          "name": "user",
          "type": "address"
        },
        {
          "indexed": false,
          "internalType": "bytes32",
          "name": "prescriptionHash",
          "type": "bytes32"
        },
        {
          "indexed": false,
          "internalType": "uint256",
          "name": "timestamp",
          "type": "uint256"
        }
      ],
      "name": "PrescriptionUploaded",
      "type": "event"
    },
    {
      "anonymous": false,
      "inputs": [
        {
          "indexed": true,
          "internalType": "address",
          "name": "user",
          "type": "address"
        },
        {
          "indexed": false,
          "internalType": "bytes32",
          "name": "userHash",
          "type": "bytes32"
        },
        {
          "indexed": false,
          "internalType": "uint256",
          "name": "timestamp",
          "type": "uint256"
        }
      ],
      "name": "UserRegistered",
      "type": "event"
    },
    {
      "inputs": [
        {
          "internalType": "bytes32",
          "name": "medicineHash",
          "type": "bytes32"
        }
      ],
      "name": "isMedicineRegistered",
      "outputs": [
        {
          "internalType": "bool",
          "name": "",
          "type": "bool"
        }
      ],
      "stateMutability": "view",
      "type": "function"
    },
    {
      "inputs": [
        {
          "internalType": "bytes32",
          "name": "pharmacyHash",
          "type": "bytes32"
        }
      ],
      "name": "isPharmacyRegistered",
      "outputs": [
        {
          "internalType": "bool",
          "name": "",
          "type": "bool"
        }
      ],
      "stateMutability": "view",
      "type": "function"
    },
    {
      "inputs": [
        {
          "internalType": "bytes32",
          "name": "prescriptionHash",
          "type": "bytes32"
        }
      ],
      "name": "isPrescriptionUploaded",
      "outputs": [
        {
          "internalType": "bool",
          "name": "",
          "type": "bool"
        }
      ],
      "stateMutability": "view",
      "type": "function"
    },
    {
      "inputs": [
        {
          "internalType": "bytes32",
          "name": "userHash",
          "type": "bytes32"
        }
      ],
      "name": "isUserRegistered",
      "outputs": [
        {
          "internalType": "bool",
          "name": "",
          "type": "bool"
        }
      ],
      "stateMutability": "view",
      "type": "function"
    },
    {
      "inputs": [
        {
          "internalType": "bytes32",
          "name": "",
          "type": "bytes32"
        }
      ],
      "name": "medicineHashes",
      "outputs": [
        {
          "internalType": "bool",
          "name": "",
          "type": "bool"
        }
      ],
      "stateMutability": "view",
      "type": "function"
    },
    {
      "inputs": [
        {
          "internalType": "bytes32",
          "name": "",
          "type": "bytes32"
        }
      ],
      "name": "pharmacyHashes",
      "outputs": [
        {
          "internalType": "bool",
          "name": "",
          "type": "bool"
        }
      ],
      "stateMutability": "view",
      "type": "function"
    },
    {
      "inputs": [
        {
          "internalType": "bytes32",
          "name": "",
          "type": "bytes32"
        }
      ],
      "name": "prescriptionHashes",
      "outputs": [
        {
          "internalType": "bool",
          "name": "",
          "type": "bool"
        }
      ],
      "stateMutability": "view",
      "type": "function"
    },
    {
      "inputs": [
        {
          "internalType": "bytes32",
          "name": "medicineHash",
          "type": "bytes32"
        }
      ],
      "name": "registerMedicine",
      "outputs": [],
      "stateMutability": "nonpayable",
      "type": "function"
    },
    {
      "inputs": [
        {
          "internalType": "bytes32",
          "name": "pharmacyHash",
          "type": "bytes32"
        }
      ],
      "name": "registerPharmacy",
      "outputs": [],
      "stateMutability": "nonpayable",
      "type": "function"
    },
    {
      "inputs": [
        {
          "internalType": "bytes32",
          "name": "userHash",
          "type": "bytes32"
        }
      ],
      "name": "registerUser",
      "outputs": [],
      "stateMutability": "nonpayable",
      "type": "function"
    },
    {
      "inputs": [
        {
          "internalType": "bytes32",
          "name": "prescriptionHash",
          "type": "bytes32"
        }
      ],
      "name": "uploadPrescription",
      "outputs": [],
      "stateMutability": "nonpayable",
      "type": "function"
    },
    {
      "inputs": [
        {
          "internalType": "bytes32",
          "name": "",
          "type": "bytes32"
        }
      ],
      "name": "userHashes",
      "outputs": [
        {
          "internalType": "bool",
          "name": "",
          "type": "bool"
        }
      ],
      "stateMutability": "view",
      "type": "function"
    }
  ],
  "bytecode": "0x6080604052348015600f57600080fd5b50610a338061001f6000396000f3fe608060405234801561001057600080fd5b50600436106100b45760003560e01c80635792a5de116100715780635792a5de1461019d5780636b2588fe146101cd57806370053310146101fd57806392e1468c1461022d578063a78823ff14610249578063cda53b6014610279576100b4565b8063131aa508146100b95780632dc03259146100d5578063311607db146100f157806335c9e4cd1461012157806339c7a00f1461013d57806354e675351461016d575b600080fd5b6100d360048036038101906100ce9190610788565b6102a9565b005b6100ef60048036038101906100ea9190610788565b610389565b005b61010b60048036038101906101069190610788565b610467565b60405161011891906107d0565b60405180910390f35b61013b60048036038101906101369190610788565b610490565b005b61015760048036038101906101529190610788565b610570565b60405161016491906107d0565b60405180910390f35b61018760048036038101906101829190610788565b610590565b60405161019491906107d0565b60405180910390f35b6101b760048036038101906101b29190610788565b6105ba565b6040516101c491906107d0565b60405180910390f35b6101e760048036038101906101e29190610788565b6105da565b6040516101f491906107d0565b60405180910390f35b61021760048036038101906102129190610788565b6105fa565b60405161022491906107d0565b60405180910390f35b61024760048036038101906102429190610788565b61061a565b005b610263600480360381019061025e9190610788565b6106f9565b60405161027091906107d0565b60405180910390f35b610293600480360381019061028e9190610788565b610723565b6040516102a091906107d0565b60405180910390f35b6003600082815260200190815260200160002060009054906101000a900460ff161561030a576040517f08c379a000000000000000000000000000000000000000000000000000000000815260040161030190610848565b60405180910390fd5b60016003600083815260200190815260200160002060006101000a81548160ff0219169083151502179055503373ffffffffffffffffffffffffffffffffffffffff167f778f3d1d8a03a4376d0413da9f11486661672d66d09cd0043f0cf62f37c2bf69824260405161037e929190610890565b60405180910390a250565b60008082815260200190815260200160002060009054906101000a900460ff16156103e9576040517f08c379a00000000000000000000000000000000000000000000000000000000081526004016103e090610905565b60405180910390fd5b600160008083815260200190815260200160002060006101000a81548160ff0219169083151502179055503373ffffffffffffffffffffffffffffffffffffffff167fe932b8f225535323212b28055402c985d3c06bca70a0c4aaa52ee2bf155dc2ac824260405161045c929190610890565b60405180910390a250565b600080600083815260200190815260200160002060009054906101000a900460ff169050919050565b6002600082815260200190815260200160002060009054906101000a900460ff16156104f1576040517f08c379a00000000000000000000000000000000000000000000000000000000081526004016104e890610971565b60405180910390fd5b60016002600083815260200190815260200160002060006101000a81548160ff0219169083151502179055503373ffffffffffffffffffffffffffffffffffffffff167f30c68934536aacc43481e8cf6034b41ae91434c43b746e19a30d1b5e99c9717b8242604051610565929190610890565b60405180910390a250565b60016020528060005260406000206000915054906101000a900460ff1681565b60006001600083815260200190815260200160002060009054906101000a900460ff169050919050565b60036020528060005260406000206000915054906101000a900460ff1681565b60026020528060005260406000206000915054906101000a900460ff1681565b60006020528060005260406000206000915054906101000a900460ff1681565b6001600082815260200190815260200160002060009054906101000a900460ff161561067b576040517f08c379a0000000000000000000000000000000000000000000000000000000008152600401610672906109dd565b60405180910390fd5b600180600083815260200190815260200160002060006101000a81548160ff0219169083151502179055503373ffffffffffffffffffffffffffffffffffffffff167f839df3759144d35bbf6c64feee148d7ef37426ca50422df206a9d2f2cfb1910782426040516106ee929190610890565b60405180910390a250565b60006002600083815260200190815260200160002060009054906101000a900460ff169050919050565b60006003600083815260200190815260200160002060009054906101000a900460ff169050919050565b600080fd5b6000819050919050565b61076581610752565b811461077057600080fd5b50565b6000813590506107828161075c565b92915050565b60006020828403121561079e5761079d61074d565b5b60006107ac84828501610773565b91505092915050565b60008115159050919050565b6107ca816107b5565b82525050565b60006020820190506107e560008301846107c1565b92915050565b600082825260208201905092915050565b7f507265736372697074696f6e20616c72656164792075706c6f61646564000000600082015250565b6000610832601d836107eb565b915061083d826107fc565b602082019050919050565b6000602082019050818103600083015261086181610825565b9050919050565b61087181610752565b82525050565b6000819050919050565b61088a81610877565b82525050565b60006040820190506108a56000830185610868565b6108b26020830184610881565b9392505050565b7f5573657220616c72656164792072656769737465726564000000000000000000600082015250565b60006108ef6017836107eb565b91506108fa826108b9565b602082019050919050565b6000602082019050818103600083015261091e816108e2565b9050919050565b7f4d65646963696e6520616c726561647920726567697374657265640000000000600082015250565b600061095b601b836107eb565b915061096682610925565b602082019050919050565b6000602082019050818103600083015261098a8161094e565b9050919050565b7f506861726d61637920616c726561647920726567697374657265640000000000600082015250565b60006109c7601b836107eb565b91506109d282610991565b602082019050919050565b600060208201905081810360008301526109f6816109ba565b905091905056fea2646970667358221220dc2b619dc6592965e40661bf4b6f99e97f0028933156a66388bd338801dea14164736f6c634300081c0033",
  "linkReferences": {},
  "deployedLinkReferences": {}
}